{
  "_format": "hh-sol-artifact-1",
  "contractName": "CrowdfundPlatform",
  "sourceName": "contracts/PrivacyCrowdfund.sol",
  "abi": [
    {
      "inputs": [],
      "stateMutability": "nonpayable",
      "type": "constructor"
    },
    {
      "anonymous": false,
      "inputs": [
        {
          "indexed": true,
          "internalType": "uint256",
          "name": "campaignId",
          "type": "uint256"
        },
        {
          "indexed": true,
          "internalType": "address",
          "name": "creator",
          "type": "address"
        },
        {
          "indexed": false,
          "internalType": "string",
          "name": "title",
          "type": "string"
        }
      ],
      "name": "CampaignCreated",
      "type": "event"
    },
    {
      "anonymous": false,
      "inputs": [
        {
          "indexed": true,
          "internalType": "uint256",
          "name": "campaignId",
          "type": "uint256"
        },
        {
          "indexed": true,
          "internalType": "address",
          "name": "creator",
          "type": "address"
        }
      ],
      "name": "CampaignFunded",
      "type": "event"
    },
    {
      "anonymous": false,
      "inputs": [
        {
          "indexed": true,
          "internalType": "uint256",
          "name": "campaignId",
          "type": "uint256"
        },
        {
          "indexed": true,
          "internalType": "address",
          "name": "contributor",
          "type": "address"
        }
      ],
      "name": "ContributionMade",
      "type": "event"
    },
    {
      "anonymous": false,
      "inputs": [
        {
          "indexed": true,
          "internalType": "uint256",
          "name": "campaignId",
          "type": "uint256"
        },
        {
          "indexed": true,
          "internalType": "address",
          "name": "contributor",
          "type": "address"
        }
      ],
      "name": "RefundIssued",
      "type": "event"
    },
    {
      "inputs": [
        {
          "internalType": "address",
          "name": "",
          "type": "address"
        }
      ],
      "name": "balances",
      "outputs": [
        {
          "internalType": "uint256",
          "name": "",
          "type": "uint256"
        }
      ],
      "stateMutability": "view",
      "type": "function"
    },
    {
      "inputs": [
        {
          "internalType": "uint256",
          "name": "",
          "type": "uint256"
        }
      ],
      "name": "campaigns",
      "outputs": [
        {
          "internalType": "address",
          "name": "creator",
          "type": "address"
        },
        {
          "internalType": "uint256",
          "name": "targetAmount",
          "type": "uint256"
        },
        {
          "internalType": "uint256",
          "name": "currentAmount",
          "type": "uint256"
        },
        {
          "internalType": "uint256",
          "name": "deadline",
          "type": "uint256"
        },
        {
          "internalType": "bool",
          "name": "active",
          "type": "bool"
        },
        {
          "internalType": "bool",
          "name": "goalReached",
          "type": "bool"
        },
        {
          "internalType": "string",
          "name": "title",
          "type": "string"
        },
        {
          "internalType": "string",
          "name": "description",
          "type": "string"
        }
      ],
      "stateMutability": "view",
      "type": "function"
    },
    {
      "inputs": [
        {
          "internalType": "uint256",
          "name": "campaignId",
          "type": "uint256"
        }
      ],
      "name": "checkGoalReached",
      "outputs": [
        {
          "internalType": "bool",
          "name": "",
          "type": "bool"
        }
      ],
      "stateMutability": "view",
      "type": "function"
    },
    {
      "inputs": [
        {
          "internalType": "uint256",
          "name": "campaignId",
          "type": "uint256"
        },
        {
          "internalType": "bytes",
          "name": "encryptedAmount",
          "type": "bytes"
        }
      ],
      "name": "contribute",
      "outputs": [],
      "stateMutability": "payable",
      "type": "function"
    },
    {
      "inputs": [
        {
          "internalType": "uint256",
          "name": "",
          "type": "uint256"
        },
        {
          "internalType": "address",
          "name": "",
          "type": "address"
        }
      ],
      "name": "contributions",
      "outputs": [
        {
          "internalType": "uint256",
          "name": "amount",
          "type": "uint256"
        },
        {
          "internalType": "uint256",
          "name": "timestamp",
          "type": "uint256"
        }
      ],
      "stateMutability": "view",
      "type": "function"
    },
    {
      "inputs": [
        {
          "internalType": "bytes",
          "name": "encryptedTarget",
          "type": "bytes"
        },
        {
          "internalType": "uint256",
          "name": "duration",
          "type": "uint256"
        },
        {
          "internalType": "string",
          "name": "title",
          "type": "string"
        },
        {
          "internalType": "string",
          "name": "description",
          "type": "string"
        }
      ],
      "name": "createCampaign",
      "outputs": [],
      "stateMutability": "nonpayable",
      "type": "function"
    },
    {
      "inputs": [],
      "name": "getCampaignCount",
      "outputs": [
        {
          "internalType": "uint256",
          "name": "",
          "type": "uint256"
        }
      ],
      "stateMutability": "view",
      "type": "function"
    },
    {
      "inputs": [
        {
          "internalType": "uint256",
          "name": "campaignId",
          "type": "uint256"
        }
      ],
      "name": "getCampaignInfo",
      "outputs": [
        {
          "internalType": "address",
          "name": "creator",
          "type": "address"
        },
        {
          "internalType": "uint256",
          "name": "deadline",
          "type": "uint256"
        },
        {
          "internalType": "bool",
          "name": "active",
          "type": "bool"
        },
        {
          "internalType": "bool",
          "name": "goalReached",
          "type": "bool"
        },
        {
          "internalType": "string",
          "name": "title",
          "type": "string"
        },
        {
          "internalType": "string",
          "name": "description",
          "type": "string"
        }
      ],
      "stateMutability": "view",
      "type": "function"
    },
    {
      "inputs": [],
      "name": "getMyBalance",
      "outputs": [
        {
          "internalType": "uint256",
          "name": "",
          "type": "uint256"
        }
      ],
      "stateMutability": "view",
      "type": "function"
    },
    {
      "inputs": [
        {
          "internalType": "uint256",
          "name": "campaignId",
          "type": "uint256"
        }
      ],
      "name": "getMyContribution",
      "outputs": [
        {
          "internalType": "uint256",
          "name": "",
          "type": "uint256"
        }
      ],
      "stateMutability": "view",
      "type": "function"
    },
    {
      "inputs": [],
      "name": "nextCampaignId",
      "outputs": [
        {
          "internalType": "uint256",
          "name": "",
          "type": "uint256"
        }
      ],
      "stateMutability": "view",
      "type": "function"
    },
    {
      "inputs": [
        {
          "internalType": "uint256",
          "name": "campaignId",
          "type": "uint256"
        }
      ],
      "name": "refund",
      "outputs": [],
      "stateMutability": "nonpayable",
      "type": "function"
    },
    {
      "inputs": [],
      "name": "totalCampaigns",
      "outputs": [
        {
          "internalType": "uint256",
          "name": "",
          "type": "uint256"
        }
      ],
      "stateMutability": "view",
      "type": "function"
    },
    {
      "inputs": [
        {
          "internalType": "uint256",
          "name": "campaignId",
          "type": "uint256"
        }
      ],
      "name": "withdrawFunds",
      "outputs": [],
      "stateMutability": "nonpayable",
      "type": "function"
    }
  ],
  "bytecode": "0x608060405234801561001057600080fd5b50600160035560006004556111f18061002a6000396000f3fe6080604052600436106100dd5760003560e01c80634c7389091161007f5780637903a756116100595780637903a756146102795780639b6781cd1461028f578063cf33f48d146102af578063e38e2b82146102e757600080fd5b80634c738909146102125780635b2329d4146102345780636caa92181461026457600080fd5b8063278ecde1116100bb578063278ecde11461016157806327e235e3146101815780633d891f59146101ae57806345cc3c49146101ff57600080fd5b806302932f56146100e2578063141961bc1461010b578063155dd5ee1461013f575b600080fd5b3480156100ee57600080fd5b506100f860045481565b6040519081526020015b60405180910390f35b34801561011757600080fd5b5061012b610126366004610c82565b610319565b604051610102989796959493929190610ce1565b34801561014b57600080fd5b5061015f61015a366004610c82565b61047f565b005b34801561016d57600080fd5b5061015f61017c366004610c82565b6105b1565b34801561018d57600080fd5b506100f861019c366004610d64565b60026020526000908152604090205481565b3480156101ba57600080fd5b506101ea6101c9366004610d86565b60016020818152600093845260408085209091529183529120805491015482565b60408051928352602083019190915201610102565b61015f61020d366004610dfb565b610788565b34801561021e57600080fd5b50336000908152600260205260409020546100f8565b34801561024057600080fd5b5061025461024f366004610c82565b61093f565b6040519015158152602001610102565b34801561027057600080fd5b506004546100f8565b34801561028557600080fd5b506100f860035481565b34801561029b57600080fd5b5061015f6102aa366004610eea565b610988565b3480156102bb57600080fd5b506100f86102ca366004610c82565b600090815260016020908152604080832033845290915290205490565b3480156102f357600080fd5b50610307610302366004610c82565b610b06565b60405161010296959493929190610f82565b6000602081905290815260409020805460018201546002830154600384015460048501546005860180546001600160a01b039096169694959394929360ff808416946101009094041692919061036e90610fd8565b80601f016020809104026020016040519081016040528092919081815260200182805461039a90610fd8565b80156103e75780601f106103bc576101008083540402835291602001916103e7565b820191906000526020600020905b8154815290600101906020018083116103ca57829003601f168201915b5050505050908060060180546103fc90610fd8565b80601f016020809104026020016040519081016040528092919081815260200182805461042890610fd8565b80156104755780601f1061044a57610100808354040283529160200191610475565b820191906000526020600020905b81548152906001019060200180831161045857829003601f168201915b5050505050905088565b6000818152602081905260409020546001600160a01b031633146104e15760405162461bcd60e51b81526020600482015260146024820152732737ba1031b0b6b830b4b3b71031b932b0ba37b960611b60448201526064015b60405180910390fd5b600081815260208190526040902060040154610100900460ff1661053a5760405162461bcd60e51b815260206004820152601060248201526f11dbd85b081b9bdd081c995858da195960821b60448201526064016104d8565b60008181526020819052604090206004015460ff1661056b5760405162461bcd60e51b81526004016104d890611012565b600081815260208190526040808220600401805460ff1916905551339183917f36363286826c15f0125771d6e92563e289df747908b4905cb70d6c73b3a24cfd9190a350565b60008181526020819052604090206003015442116106095760405162461bcd60e51b815260206004820152601560248201527443616d706169676e207374696c6c2061637469766560581b60448201526064016104d8565b600081815260208190526040902060040154610100900460ff16156106635760405162461bcd60e51b815260206004820152601060248201526f11dbd85b081dd85cc81c995858da195960821b60448201526064016104d8565b6000818152600160209081526040808320338452909152902080546106c25760405162461bcd60e51b8152602060048201526015602482015274139bc818dbdb9d1c9a589d5d1a5bdb88199bdd5b99605a1b60448201526064016104d8565b33600090815260026020526040902054806107165760405162461bcd60e51b8152602060048201526014602482015273139bc818985b185b98d9481d1bc81c99599d5b9960621b60448201526064016104d8565b6000808355338082526002602052604080832083905551909183156108fc02918491818181858888f19350505050158015610755573d6000803e3d6000fd5b50604051339084907f4f98299055c017596024bf5f17efb243bb559423f63a766e2effca248d0a952190600090a3505050565b60008381526020819052604090206004015460ff166107b95760405162461bcd60e51b81526004016104d890611012565b600083815260208190526040902060030154421061080c5760405162461bcd60e51b815260206004820152601060248201526f10d85b5c185a59db88195e1c1a5c995960821b60448201526064016104d8565b6000341161084c5760405162461bcd60e51b815260206004820152600d60248201526c09aeae6e840e6cadcc8408aa89609b1b60448201526064016104d8565b6000828260405161085e92919061103f565b604080519182900382208282018252600087815260016020908152838220338352905291909120549092508190610896908490611065565b8152426020918201526000868152600180835260408083203384528452808320855181559484015194909101939093558681529081905290812060020180543492906108e3908490611065565b90915550503360009081526002602052604081208054349290610907908490611065565b9091555050604051339085907f307c1c8dcf9e5e0b374f6c475ff7c473dd02a9248096afa14405976e4ea1eb6a90600090a350505050565b60008181526020819052604081206004015460ff166109705760405162461bcd60e51b81526004016104d890611012565b50600090815260208190526040902060020154151590565b6000858560405161099a92919061103f565b6040805191829003822061010083018252338352602083018190526000918301919091529150606081016109ce8642611065565b8152600160208083018290526000604080850182905260608086018a9052608095860189905260038054845283855292829020875181546001600160a01b039091166001600160a01b03199091161781559387015194840194909455850151600283015591840151918101919091559082015160048201805460a085015115156101000261ff00199315159390931661ffff199091161791909117905560c08201516005820190610a7f90826110cf565b5060e08201516006820190610a9490826110cf565b50506003546040513392507fc04c663886cae794dc52158f70fe6c8ee3b0140d4f48647282f9b693ff688a6590610acc90879061118f565b60405180910390a360038054906000610ae4836111a2565b909155505060048054906000610af9836111a2565b9190505550505050505050565b6000818152602081905260408120805460038201546004830154600584018054869586958695606095869593946001600160a01b0390931693919260ff8083169361010090930416919060068701908290610b6090610fd8565b80601f0160208091040260200160405190810160405280929190818152602001828054610b8c90610fd8565b8015610bd95780601f10610bae57610100808354040283529160200191610bd9565b820191906000526020600020905b815481529060010190602001808311610bbc57829003601f168201915b50505050509150808054610bec90610fd8565b80601f0160208091040260200160405190810160405280929190818152602001828054610c1890610fd8565b8015610c655780601f10610c3a57610100808354040283529160200191610c65565b820191906000526020600020905b815481529060010190602001808311610c4857829003601f168201915b505050505090509650965096509650965096505091939550919395565b600060208284031215610c9457600080fd5b5035919050565b6000815180845260005b81811015610cc157602081850181015186830182015201610ca5565b506000602082860101526020601f19601f83011685010191505092915050565b600061010060018060a01b038b168352896020840152886040840152876060840152861515608084015285151560a08401528060c0840152610d2581840186610c9b565b905082810360e0840152610d398185610c9b565b9b9a5050505050505050505050565b80356001600160a01b0381168114610d5f57600080fd5b919050565b600060208284031215610d7657600080fd5b610d7f82610d48565b9392505050565b60008060408385031215610d9957600080fd5b82359150610da960208401610d48565b90509250929050565b60008083601f840112610dc457600080fd5b50813567ffffffffffffffff811115610ddc57600080fd5b602083019150836020828501011115610df457600080fd5b9250929050565b600080600060408486031215610e1057600080fd5b83359250602084013567ffffffffffffffff811115610e2e57600080fd5b610e3a86828701610db2565b9497909650939450505050565b634e487b7160e01b600052604160045260246000fd5b600082601f830112610e6e57600080fd5b813567ffffffffffffffff80821115610e8957610e89610e47565b604051601f8301601f19908116603f01168101908282118183101715610eb157610eb1610e47565b81604052838152866020858801011115610eca57600080fd5b836020870160208301376000602085830101528094505050505092915050565b600080600080600060808688031215610f0257600080fd5b853567ffffffffffffffff80821115610f1a57600080fd5b610f2689838a01610db2565b9097509550602088013594506040880135915080821115610f4657600080fd5b610f5289838a01610e5d565b93506060880135915080821115610f6857600080fd5b50610f7588828901610e5d565b9150509295509295909350565b60018060a01b03871681528560208201528415156040820152831515606082015260c060808201526000610fb960c0830185610c9b565b82810360a0840152610fcb8185610c9b565b9998505050505050505050565b600181811c90821680610fec57607f821691505b60208210810361100c57634e487b7160e01b600052602260045260246000fd5b50919050565b60208082526013908201527243616d706169676e206e6f742061637469766560681b604082015260600190565b8183823760009101908152919050565b634e487b7160e01b600052601160045260246000fd5b808201808211156110785761107861104f565b92915050565b601f8211156110ca576000816000526020600020601f850160051c810160208610156110a75750805b601f850160051c820191505b818110156110c6578281556001016110b3565b5050505b505050565b815167ffffffffffffffff8111156110e9576110e9610e47565b6110fd816110f78454610fd8565b8461107e565b602080601f831160018114611132576000841561111a5750858301515b600019600386901b1c1916600185901b1785556110c6565b600085815260208120601f198616915b8281101561116157888601518255948401946001909101908401611142565b508582101561117f5787850151600019600388901b60f8161c191681555b5050505050600190811b01905550565b602081526000610d7f6020830184610c9b565b6000600182016111b4576111b461104f565b506001019056fea2646970667358221220dd527812614a0d9bc319b796d4bdfcc6c07acc0d66582d1a6ae4e2de2d342f3264736f6c63430008180033",
  "linkReferences": {},
  "deployedLinkReferences": {}
}